:100000000C9446000C9465000C9465000C946500FB
:100010000C9465000C9465000C9465000C946500CC
:100020000C9465000C9465000C9465000C946500BC
:100030000C9465000C9445010C9465000C946500CB
:100040000C9465000C9465000C9465000C9465009C
:100050000C9465000C9465000C9465000C9465008C
:100060000C9465000C9465000C9465000C9465007C
:100070000C9465000C9465000C9465000C9465006C
:100080000C9465000C9465000C94650011241FBE4F
:10009000CFEFD0E4DEBFCDBF11E0A0E0B1E0E6EDF0
:1000A000F3E000E00BBF02C007900D92A431B1074E
:1000B000D9F711E0A4E1B1E001C01D92AF33B1075F
:1000C000E1F70E94A5010C94E9010C940000CF9384
:1000D000C82F8A3019F48DE00E9467009091C0000B
:1000E00095FFFCCFC093C60080E090E0CF910895CB
:1000F0008130910569F01CF4009769F00EC08230E0
:10010000910549F08330910541F481E090E005C00C
:1001100082E090E002C083E090E08130910591F0B0
:100120001CF4009741F008958230910579F08330F6
:10013000910521F0089510921501089521E0209372
:100140001501089522E020931501089524E02093DD
:1001500015010895009731F08130910529F480E070
:1001600090E002C081E090E0009721F0813091059D
:1001700021F0089510921401089528E020931401AD
:1001800008953091140120911501232B25B908956C
:100190008BE0809381008DE790E0909389008093BD
:1001A000880082E080936F00109285001092840096
:1001B0008091000190910101A0910201B091030191
:1001C0008093160190931701A0931801B093190121
:1001D0008FB780688FBF0895109281000895EF92C5
:1001E000FF921F93CF93DF938FEF85B910E044C048
:1001F000C12FD0E0CE01880F991F8C0F9D1F880F53
:10020000991F880F991FFC01E55EFE4F46815781BB
:100210006085718582819381A481B58148175907D2
:100220006A077B0778F07F01DF010284F385E02D08
:100230008D919C910995F701918380831682178295
:10024000108611869E01220F331FC9018C0F9D1F3E
:10025000880F991F880F991FFC01E55EFE4F86816C
:100260009781A085B1858C599F4FAF4FBF4F868333
:100270009783A087B1871F5F133008F4B9CFDF9150
:10028000CF911F91FF90EF9008951F920F920FB69C
:100290000F9211240BB60F922F933F934F935F93BE
:1002A0006F937F938F939F93AF93BF93EF93FF933E
:1002B0008091160190911701A0911801B091190138
:1002C0000197A109B1098093160190931701A0939A
:1002D0001801B0931901892B8A2B8B2B91F40E9462
:1002E000EF008091000190910101A0910201B09175
:1002F00003018093160190931701A0931801B09306
:100300001901FF91EF91BF91AF919F918F917F91D3
:100310006F915F914F913F912F910F900BBE0F9076
:100320000FBE0F901F90189560930001709301010C
:10033000809302019093030160931601709317015B
:10034000809318019093190108958FEF84B915B81F
:10035000EBE1F1E0118210828CE291E0A0E0B0E0EC
:1003600082839383A483B58386839783A087B18791
:1003700088E790E0938782871586148688EE93E05D
:10038000A0E0B0E086879787A08BB18B828B938BA0
:10039000A48BB58B8AEA90E0978B868B118E108E9A
:1003A00084E690E0A0E0B0E0828F938FA48FB58FB9
:1003B000868F978FA0A3B1A381EC90E093A382A333
:1003C00064E670E080E090E00E9494010E94C80022
:0603D000FFCFF894FFCFFF
:1003D60001000000000000020000000067000000AD
:0403E6000000030010
:00000001FF
