:100000000C9446000C9465000C9465000C946500FB
:100010000C9465000C9465000C9465000C946500CC
:100020000C9465000C9465000C9465000C946500BC
:100030000C9465000C9463010C9465000C946500AD
:100040000C9465000C9465000C9465000C9465009C
:100050000C9465000C9465000C9465000C9465008C
:100060000C9465000C9465000C9465000C9465007C
:100070000C9465000C9465000C9465000C9465006C
:100080000C9465000C9465000C94650011241FBE4F
:10009000CFEFD0E4DEBFCDBF11E0A0E0B1E0E6E3FA
:1000A000F4E000E00BBF02C007900D92A431B1074D
:1000B000D9F711E0A4E1B1E001C01D92AC34B10761
:1000C000E1F70E94C3010C9419020C940000CF9335
:1000D000C82F8A3019F48DE00E9467009091C0000B
:1000E00095FFFCCFC093C60080E090E0CF910895CB
:1000F0008130910569F01CF4009769F00EC08230E0
:10010000910549F08330910541F481E090E005C00C
:1001100082E090E002C083E090E08130910591F0B0
:100120001CF4009741F008958230910579F08330F6
:10013000910521F0089510921601089521E0209371
:100140001601089522E020931601089524E02093DB
:1001500016010895009731F08130910529F480E06F
:1001600090E002C081E090E0009721F0813091059D
:1001700021F0089510921501089528E020931501AB
:100180000895029B17C0009721F08130910521F05E
:1001900005C081E090E002C080E090E0009739F077
:1001A0008130910549F480E1809314010895109203
:1001B00014010895109214010895309115012091B1
:1001C0001601232B30911401232B25B908958BE0C0
:1001D000809381008DE790E0909389008093880060
:1001E00082E080936F0010928500109284008091CD
:1001F000000190910101A0910201B091030180934F
:10020000170190931801A0931901B0931A018FB7A9
:1002100080688FBF0895109281000895EF92FF9239
:100220001F93CF93DF938FEF85B910E043C0C12FA9
:10023000D0E0CE01880F991F8C0F9D1F880F991F4A
:10024000880F991FFC01E45EFE4F4681578160854F
:10025000718582819381A481B581481759076A0706
:100260007B0778F07F01DF010284F385E02D8D911B
:100270009C910995F70191838083168217821086DD
:1002800011869E01220F331FC9018C0F9D1F880FFD
:10029000991F880F991FFC01E45EFE4F86819781AC
:1002A000A085B1850296A11DB11D86839783A08785
:1002B000B1871F5F143008F4BACFDF91CF911F913F
:1002C000FF90EF9008951F920F920FB60F92112496
:1002D0000BB60F922F933F934F935F936F937F9340
:1002E0008F939F93AF93BF93EF93FF9380911701E9
:1002F00090911801A0911901B0911A010197A109DB
:10030000B1098093170190931801A0931901B0933C
:100310001A01892B8A2B8B2B91F40E940E0180915C
:10032000000190910101A0910201B091030180931D
:10033000170190931801A0931901B0931A01FF912E
:10034000EF91BF91AF919F918F917F916F915F914D
:100350004F913F912F910F900BBE0F900FBE0F90BA
:100360001F90189560930001709301018093020122
:100370009093030160931701709318018093190102
:1003800090931A0108958FEF84B915B811B810B879
:10039000ECE1F1E0118210828CE291E0A0E0B0E0AB
:1003A00082839383A483B58386839783A087B18751
:1003B00088E790E0938782871586148688EE93E01D
:1003C000A0E0B0E086879787A08BB18B828B938B60
:1003D000A48BB58B8AEA90E0978B868B118E108E5A
:1003E00082E090E0A0E0B0E0828F938FA48FB58F81
:1003F000868F978FA0A3B1A32DED30E033A322A366
:1004000021E030E035A324A386A397A3A0A7B1A73A
:1004100082A793A7A4A7B5A781EC90E097A786A78A
:1004200062E070E080E090E00E94B2010E94E7008C
:06043000FFCFF894FFCF9E
:10043600010000000000000200000000670000004C
:0404460000000400AE
:00000001FF
